:100000000C942A000C9447000C9447000C94470071
:100010000C9447000C9447000C9447000C94470044
:100020000C9447000C9447000C9447000C94470034
:100030000C9447000C9447000C9447000C94470024
:100040000C9447000C9447000C9447000C94470014
:100050000C94470011241FBECFE5D8E0DEBFCDBF12
:1000600011E0A8E6B1E001C01D92A337B107E1F7A6
:1000700011E0A0E6B0E0E0E8FCE102C005900D92DE
:10008000A836B107D9F70E94690D0C943E0E0C9466
:100090000000EF92FF920F931F937B018C0120E0F1
:1000A00030E040E05FE40E94C50388238CF0C80183
:1000B000B70120E030E040E05FE40E94C1010E940F
:1000C000F5039B01AC01205030404040504806C031
:1000D000C801B7010E94F5039B01AC01B901CA0137
:1000E0001F910F91FF90EF900895A0E0B0E0EBE733
:1000F000F0E00C94070EDC012B01FA019C91923088
:1001000008F439C1EB018881823008F433C194309E
:1001100069F4843009F02FC111969C91119789815F
:10012000981709F428C1A0E6B0E025C1843009F48D
:1001300021C18230A9F4923009F01DC19A01AD01AC
:1001400088E0EA010990AE01E90109929E0181501F
:10015000C1F7E201898111969C918923818308C1AD
:10016000923009F407C112962D903C901397EB0141
:100170008A819B811496AD90BD90CD90DC901797AD
:10018000EC80FD800E811F819101281B390BB90184
:1001900037FF04C066277727621B730B6032710537
:1001A0000CF061C0121613066CF537014801062EDB
:1001B00004C096948794779467940A94D2F721E0C8
:1001C00030E040E050E004C0220F331F441F551FB1
:1001D0006A95D2F721503040404050402E213F21B7
:1001E00040235123211531054105510521F021E01E
:1001F00030E040E050E079018A01E628F72808293C
:1002000019293CC0232BD1F1260E371E350146019A
:10021000062E04C096948794779467940A94D2F734
:1002200021E030E040E050E004C0220F331F441FC3
:10023000551F6A95D2F721503040404050402A2146
:100240003B214C215D21211531054105510521F04E
:1002500021E030E040E050E059016A01A628B728CB
:10026000C828D9280BC0821593052CF01C01AA249C
:10027000BB24650103C0EE24FF24870111969C91E5
:10028000D20111968C91981709F445C0992339F041
:10029000A80197012A193B094C095D0906C0A6016E
:1002A00095012E193F09400B510B57FD08C01182D3
:1002B0003382228224833583468357831DC081E0A5
:1002C00081833382228288279927DC01821B930B4A
:1002D000A40BB50B84839583A683B7830DC0220F2F
:1002E000331F441F551F24833583468357838281E0
:1002F000938101979383828324813581468157813D
:10030000DA01C9010197A109B1098F5F9F4FAF4F72
:10031000BF4328F30BC0918333822282EA0CFB1C7B
:100320000C1D1D1DE482F5820683178383E0808304
:10033000248135814681578157FF1AC0C901AA27F8
:1003400097FDA095BA2F81709070A070B0705695EF
:10035000479537952795822B932BA42BB52B848318
:100360009583A683B7838281938101969383828349
:10037000DF0101C0D201CD01CDB7DEB7E2E10C94BF
:10038000230EA0E2B0E0E7ECF1E00C94130E6983D9
:100390007A838B839C832D833E834F835887E9E048
:1003A000EE2EF12CEC0EFD1ECE010196B7010E943F
:1003B000E6058E010F5E1F4FCE010596B8010E9423
:1003C000E6058A8991E089278A8BC701B801AE01C9
:1003D000475E5F4F0E9475000E941105A096E6E0FF
:1003E0000C942F0EA0E2B0E0E8EFF1E00C94130EB5
:1003F00069837A838B839C832D833E834F835887C5
:10040000F9E0EF2EF12CEC0EFD1ECE010196B701A6
:100410000E94E6058E010F5E1F4FCE010596B801C2
:100420000E94E605C701B801AE01475E5F4F0E941A
:1004300075000E941105A096E6E00C942F0EA0E234
:10044000B0E0E5E2F2E00C94070E69837A838B83D7
:100450009C832D833E834F835887CE010196BE0136
:10046000675F7F4F0E94E605CE010596BE016F5E75
:100470007F4F0E94E6059985923088F08989823005
:10048000C8F0943019F4823051F404C0843029F457
:10049000923081F480E690E0C6C0923049F420E0CA
:1004A0009A858A89981321E02A87CE010996BBC0D4
:1004B000823049F420E09A858A89981321E02A8BBA
:1004C000CE014196B0C02D843E844F8458886D88FB
:1004D0007E888F88988CEE24FF248701AA24BB2471
:1004E000650140E050E060E070E0E0E0F0E0C10174
:1004F00081709070892BE9F0E60CF71C081D191D1E
:100500009A01AB012A0D3B1D4C1D5D1D80E090E062
:10051000A0E0B0E0E614F7040805190520F481E036
:1005200090E0A0E0B0E0BA01A901480F591F6A1F8E
:100530007B1FAA0CBB1CCC1CDD1C97FE08C081E0F5
:1005400090E0A0E0B0E0A82AB92ACA2ADB2A3196B6
:10055000E032F10549F0660C771C881C991C569412
:10056000479437942794C3CFFA85EA892B893C892D
:100570008B859C85280F391F2E5F3F4F17C0CA01FE
:1005800081709070892B61F016950795F794E79428
:1005900080E090E0A0E0B0E8E82AF92A0A2B1B2BC3
:1005A00076956795579547952F5F3F4F77FDE7CF36
:1005B0000CC0440F551F661F771F17FD4160EE0CDE
:1005C000FF1C001F111F21503040403090E05907A0
:1005D00090E0690790E4790760F32B8F3C8FDB0193
:1005E000CA018F779070A070B07080349105A1051A
:1005F000B10561F447FD0AC0E114F10401051105DC
:1006000029F0405C5F4F6F4F7F4F40781A8EFE1786
:1006100011F081E08A8F4D8F5E8F6F8F78A383E01A
:10062000898FCE0149960E941105A096E2E10C94B3
:10063000230EA8E1B0E0EFE1F3E00C940F0E698324
:100640007A838B839C832D833E834F835887B9E0C5
:10065000EB2EF12CEC0EFD1ECE010196B7010E948F
:10066000E6058E010F5E1F4FCE010596B8010E9470
:10067000E6052985223008F47EC03989323010F42D
:10068000B8017CC08A859A8989278A87243011F02D
:10069000223031F4231709F06EC060E670E06EC0BE
:1006A000343039F41D861E861F86188A1C861B86E8
:1006B00004C0323021F484E08987B7015FC02B8504
:1006C0003C858B899C89281B390B3C872B87ED84C3
:1006D000FE840F851889AD88BE88CF88D88CEA142F
:1006E000FB040C051D0540F4EE0CFF1C001F111F40
:1006F000215030403C872B8720E030E040E050E044
:1007000080E090E0A0E0B0E460E070E0EA14FB0478
:100710000C051D0540F0282B392B4A2B5B2BEA18C2
:10072000FB080C091D09B695A79597958795EE0CC2
:10073000FF1C001F111F6F5F7F4F6F31710531F775
:10074000DA01C9018F779070A070B0708034910584
:10075000A105B10561F427FD0AC0E114F10401050A
:10076000110529F0205C3F4F4F4F5F4F20782D87B8
:100770003E874F87588BBE01675F7F4FCB010E943A
:1007800011056896EAE00C942B0EA8E1B0E0EBECC2
:10079000F3E00C94130E69837A838B839C832D83FF
:1007A0003E834F83588789E0E82EF12CEC0EFD1E26
:1007B000CE010196B7010E94E6058E010F5E1F4F24
:1007C000CE010596B8010E94E6058985823040F089
:1007D0008989823028F0C701B8010E945E0601C0F5
:1007E0008FEF6896E6E00C942F0EACE0B0E0EBEFF4
:1007F000F3E00C94170E69837A838B839C83CE017C
:100800000196BE016B5F7F4F0E94E6058D818230AD
:1008100061F1823050F1843021F48E81882351F1CE
:100820002EC02F81388537FD20C06E812F313105D4
:100830001CF06623F9F023C08EE190E0821B930B3D
:1008400029853A854B855C8504C056954795379533
:1008500027958A95D2F76623B1F05095409530954B
:1008600021953F4F4F4F5F4F0EC020E030E040E0FA
:1008700050E009C02FEF3FEF4FEF5FE704C020E0EB
:1008800030E040E050E8B901CA012C96E2E00C9457
:10089000330EA8E0B0E0EFE4F4E00C940F0E7B011F
:1008A0008C01611571058105910519F482E0898338
:1008B00060C083E089838EE1C82ED12CDC82CB829C
:1008C000ED82FE820F831887C801B7010E94C2041F
:1008D000FC013197F7FF3BC0222733272E1B3F0B2C
:1008E00057016801022E04C0D694C794B794A79408
:1008F0000A94D2F740E050E060E070E081E090E0E0
:10090000A0E0B0E004C0880F991FAA1FBB1F2A9562
:10091000D2F70197A109B1098E219F21A023B1230C
:100920000097A105B10521F041E050E060E070E0E2
:100930004A295B296C297D294D835E836F837887E3
:100940008EE190E08E1B9F0B9C838B8312C03097AF
:1009500081F00E2E04C0EE0CFF1C001F111F0A9424
:10096000D2F7ED82FE820F831887CE1ADF0ADC826F
:10097000CB821A82CE0101960E9411052896EAE0E8
:100980000C942B0EEF92FF920F931F937B018C011F
:1009900080E0E81680E0F80681E0080780E01807AC
:1009A00088F48FEFE816F1040105110531F028F005
:1009B00088E090E0A0E0B0E017C080E090E0A0E028
:1009C000B0E012C080E0E81680E0F80680E008079A
:1009D00081E0180728F088E190E0A0E0B0E004C0D2
:1009E00080E190E0A0E0B0E020E230E040E050E0C4
:1009F000281B390B4A0B5B0B04C016950795F7941F
:100A0000E7948A95D2F7F701E859FF4F8081281BB8
:100A1000310941095109C9011F910F91FF90EF90D0
:100A20000895DF92EF92FF920F931F93FC01E480F1
:100A3000F58006811781D1808081823048F480E082
:100A400090E0A0E1B0E0E82AF92A0A2B1B2BA5C010
:100A5000843009F49FC0823021F4EE24FF24870102
:100A600005C0E114F1040105110519F4E0E0F0E01E
:100A700096C0628173819FEF623879070CF05BC08A
:100A800022E83FEF261B370B2A3131052CF020E0FE
:100A900030E040E050E02AC0B801A701022E04C0B7
:100AA00076956795579547950A94D2F781E090E03F
:100AB000A0E0B0E004C0880F991FAA1FBB1F2A95B1
:100AC000D2F70197A109B1098E219F21A023B1235B
:100AD0000097A105B10521F081E090E0A0E0B0E031
:100AE0009A01AB01282B392B4A2B5B2BDA01C90168
:100AF0008F779070A070B07080349105A105B1051A
:100B000039F427FF09C0205C3F4F4F4F5F4F04C0AF
:100B1000215C3F4F4F4F5F4FE0E0F0E02030A0E01E
:100B20003A07A0E04A07A0E45A0710F0E1E0F0E03D
:100B300079018A0127C06038710564F5FB01E1582D
:100B4000FF4FD801C7018F779070A070B0708034CC
:100B50009105A105B10539F4E7FE0DC080E490E0F0
:100B6000A0E0B0E004C08FE390E0A0E0B0E0E80EC9
:100B7000F91E0A1F1B1F17FF05C016950795F7944E
:100B8000E794319687E016950795F794E7948A9550
:100B9000D1F705C0EE24FF248701EFEFF0E06E2FC0
:100BA000679566276795902F9F77D794DD24D79414
:100BB0008E2F8695492F462B582F5D29B701CA01E4
:100BC0001F910F91FF90EF90DF900895FC01DB01E2
:100BD000408151812281622F6F7770E0221F22278E
:100BE000221F9381892F880F822B282F30E0991F95
:100BF0009927991F11969C93119721153105A9F5F5
:100C0000411551056105710511F482E037C082E894
:100C10009FEF13969C938E9312979A01AB0167E016
:100C2000220F331F441F551F6A95D1F783E08C9321
:100C30000DC0220F331F441F551F12968D919C919A
:100C40001397019713969C938E931297203080E010
:100C5000380780E0480780E4580758F314962D932E
:100C60003D934D935C93179708952F3F310579F489
:100C7000411551056105710519F484E08C930895BF
:100C800064FF03C081E08C9312C01C9210C02F57E8
:100C9000304013963C932E93129783E08C9387E019
:100CA000440F551F661F771F8A95D1F770641496FD
:100CB0004D935D936D937C93179708951F93DC017B
:100CC000FB019C91923008F447C08081823008F487
:100CD00043C0943051F411961C91843099F5818170
:100CE000682F70E0611B71093FC0843021F09230A1
:100CF00031F48230B9F18181882389F12DC01196B8
:100D00001C9111978230F1F081811817D9F4129655
:100D10002D913C911397828193818217930794F0D0
:100D200028173907BCF014968D919D910D90BC91B8
:100D3000A02D2481358146815781281739074A071C
:100D40005B0718F4112341F00AC082179307A40728
:100D5000B50740F4112319F061E070E005C06FEFB2
:100D60007FEF02C060E070E0CB011F910895DF9338
:100D7000CF930F92CDB7DEB780E88983E9E2F0E048
:100D800087E6808389818F7E898389818F7D8983AE
:100D90008981877F898389818F7B8983898182602B
:100DA0008983898184608983AAE2B0E0EAE2F0E085
:100DB00080818B7F8C93E0E4F0E089818083AAE2DC
:100DC000B0E0EAE2F0E0808180618C93AAE2B0E0DA
:100DD000EAE2F0E0808188608C930F90CF91DF9100
:100DE0000895DF93CF930F92CDB7DEB78983ECE2FE
:100DF000F0E089818083EBE2F0E080818295869546
:100E000086958370882F90E081709070009799F399
:100E10000F90CF91DF910895DF93CF93CDB7DEB7D9
:100E2000EBE2F0E080818823DCF7ECE2F0E0808107
:100E3000CF91DF910895DF93CF93CDB7DEB7CF91F8
:100E4000DF910895DF93CF93CDB7DEB72C970FB620
:100E5000F894DEBF0FBECDBF69877A878B879C87EA
:100E600080E490E0A0E0B0E08D839E83AF83B887FC
:100E700089859A85AB85BC8528EE33E040E050E05B
:100E8000BC01CD010E94BA0DDC01CB012D813E8158
:100E90004F815885BC01CD010E94E50DDA01C901E1
:100EA00089839A83AB83BC832C960FB6F894DEBFFC
:100EB0000FBECDBFCF91DF910895DF93CF9300D0C8
:100EC0000F92CDB7DEB789838981282F30E03B832D
:100ED0002A838A819B81009731F02A813B812130CE
:100EE0003105B9F02BC0A3E5B0E0E3E5F0E0808187
:100EF00081608C93A3E5B0E0E3E5F0E080818D7F35
:100F00008C93A3E5B0E0E3E5F0E0808184608C930E
:100F100015C0AEE4B0E0EEE4F0E0808181608C9337
:100F2000AEE4B0E0EEE4F0E080818D7F8C93AEE43F
:100F3000B0E0EEE4F0E0808184608C930F900F903D
:100F40000F90CF91DF910895DF93CF9300D00F9250
:100F5000CDB7DEB789838981282F30E03B832A8390
:100F60008A819B81009731F02A813B8121303105B4
:100F7000B9F02BC0A3E5B0E0E3E5F0E080818E7F1F
:100F80008C93A3E5B0E0E3E5F0E080818D7F8C9366
:100F9000A3E5B0E0E3E5F0E080818B7F8C9315C0A2
:100FA000AEE4B0E0EEE4F0E080818E7F8C93AEE4BE
:100FB000B0E0EEE4F0E080818D7F8C93AEE4B0E0B1
:100FC000EEE4F0E080818B7F8C930F900F900F9078
:100FD000CF91DF910895DF93CF9300D00F92CDB7DB
:100FE000DEB789838981282F30E03B832A838A8179
:100FF0009B81009731F02A813B812130310511F12D
:1010000055C087E161E00E941409A3E5B0E0E3E583
:10101000F0E0808180648C93A3E5B0E0E3E5F0E04C
:10102000808188608C93A3E5B0E0E3E5F0E0808107
:101030008F7E8C93A3E5B0E0E3E5F0E080818062F1
:101040008C9334C08DE261E00E941409AFE4B0E0FB
:10105000EFE4F0E080818E7F8C93AFE4B0E0EFE4CA
:10106000F0E0808182608C93AEE4B0E0EEE4F0E0EA
:10107000808188608C93AEE4B0E0EEE4F0E08081A3
:1010800080618C93AFE4B0E0EFE4F0E080818F7B8F
:101090008C93AFE4B0E0EFE4F0E0808180688C9363
:1010A000E6E4F0E084E091E0918380830F900F907C
:1010B0000F90CF91DF9108950F931F93DF93CF93FC
:1010C000CDB7DEB727970FB6F894DEBF0FBECDBF02
:1010D00089834A835B836C837D838981282F30E0F9
:1010E0003F832E838E819F81009731F0EE81FF81B7
:1010F000E130F10561F161C00CE510E06A817B81AE
:101100008C819D8120E030E040E853E40E941F0282
:10111000DC01CB01BC01CD0120E030E048EC52E421
:101120000E941903DC01CB01BC01CD0120E030E0BD
:1011300040E85FE30E94C101DC01CB01BC01CD01AD
:101140000E944900DC01CB01F801808336C00AE42B
:1011500010E0E6E4F0E080819181CC01A0E0B0E015
:10116000BC01CD010E944904DC01CB01BC01CD01D1
:101170002A813B814C815D810E941F02DC01CB01F1
:10118000BC01CD0120E030E048EC52E40E9419039C
:10119000DC01CB01BC01CD0120E030E040E85FE3A1
:1011A0000E94C101DC01CB01BC01CD010E944900BC
:1011B000DC01CB01F8019183808327960FB6F89468
:1011C000DEBF0FBECDBFCF91DF911F910F9108956C
:1011D000DF93CF930F92CDB7DEB7898389810E94C9
:1011E0005D070F90CF91DF910895DF93CF930F921A
:1011F000CDB7DEB7898389810E94A4070F90CF9174
:10120000DF910895DF93CF9300D0CDB7DEB79A83F7
:10121000898389819A8190937201809371010F90E3
:101220000F90CF91DF910895DF93CF93CDB7DEB7C5
:101230002A970FB6F894DEBF0FBECDBF8B836C83A9
:101240008B819AE0692F0E94D90D892F8A838B8127
:101250009AE0692F0E94D90D89838C81282F30E074
:101260003A87298789859A85009739F029853A85B3
:101270002130310509F476C0E4C08981282F30E09F
:1012800038872F838F8198858230910561F12F8176
:1012900038852330310534F48F819885813091056C
:1012A00069F0CFC02F8138852330310589F18F81D6
:1012B00098858430910509F440C0C3C0AAE3B0E02A
:1012C000EAE3F0E08081482F8A81282F30E081E036
:1012D00090E0022E02C0880F991F0A94E2F78095D1
:1012E00084238C93AEC0A7E3B0E0E7E3F0E0808115
:1012F000482F8A81282F30E081E090E0022E02C042
:10130000880F991F0A94E2F7809584238C9399C0E3
:10131000A4E3B0E0E4E3F0E08081482F8A81282F45
:1013200030E081E090E0022E02C0880F991F0A94FD
:10133000E2F7809584238C9384C0A1E3B0E0E1E3DD
:10134000F0E08081482F8A81282F30E081E090E012
:10135000022E02C0880F991F0A94E2F78095842319
:101360008C936FC08981282F30E03E832D838D813F
:101370009E818230910551F12D813E8123303105CE
:1013800034F48D819E818130910561F05AC02D81A8
:101390003E812330310571F18D819E81843091052C
:1013A000E9F14FC0AAE3B0E0EAE3F0E08081482F22
:1013B0008A81282F30E081E090E0022E02C0880F61
:1013C000991F0A94E2F7842B8C933BC0A7E3B0E00B
:1013D000E7E3F0E08081482F8A81282F30E081E028
:1013E00090E0022E02C0880F991F0A94E2F7842B26
:1013F0008C9327C0A4E3B0E0E4E3F0E08081482FC1
:101400008A81282F30E081E090E0022E02C0880F10
:10141000991F0A94E2F7842B8C9313C0A1E3B0E0E8
:10142000E1E3F0E08081482F8A81282F30E081E0DD
:1014300090E0022E02C0880F991F0A94E2F7842BD5
:101440008C932A960FB6F894DEBF0FBECDBFCF9116
:10145000DF910895DF93CF93CDB7DEB72A970FB60C
:10146000F894DEBF0FBECDBF8B836C838B819AE077
:10147000692F0E94D90D892F8A838B819AE0692F69
:101480000E94D90D89838C81282F30E03A872987E3
:1014900089859A85009739F029853A85213031056B
:1014A00009F476C0E4C08981282F30E038872F8383
:1014B0008F8198858230910561F12F8138852330A5
:1014C000310534F48F8198858130910569F0CFC062
:1014D0002F8138852330310589F18F8198858430BB
:1014E000910509F440C0C3C0ABE3B0E0EBE3F0E02A
:1014F0008081482F8A81282F30E081E090E0022E01
:1015000002C0880F991F0A94E2F7809584238C9378
:10151000AEC0A8E3B0E0E8E3F0E08081482F8A8124
:10152000282F30E081E090E0022E02C0880F991F42
:101530000A94E2F7809584238C9399C0A5E3B0E0E8
:10154000E5E3F0E08081482F8A81282F30E081E0B8
:1015500090E0022E02C0880F991F0A94E2F780954E
:1015600084238C9384C0A2E3B0E0E2E3F0E08081C6
:10157000482F8A81282F30E081E090E0022E02C0BF
:10158000880F991F0A94E2F7809584238C936FC08B
:101590008981282F30E03E832D838D819E8182308A
:1015A000910551F12D813E812330310534F48D8137
:1015B0009E818130910561F05AC02D813E8123309A
:1015C000310571F18D819E8184309105E9F14FC023
:1015D000ABE3B0E0EBE3F0E08081482F8A81282F75
:1015E00030E081E090E0022E02C0880F991F0A943B
:1015F000E2F7842B8C933BC0A8E3B0E0E8E3F0E093
:101600008081482F8A81282F30E081E090E0022EEF
:1016100002C0880F991F0A94E2F7842B8C9327C08D
:10162000A5E3B0E0E5E3F0E08081482F8A81282F30
:1016300030E081E090E0022E02C0880F991F0A94EA
:10164000E2F7842B8C9313C0A2E3B0E0E2E3F0E076
:101650008081482F8A81282F30E081E090E0022E9F
:1016600002C0880F991F0A94E2F7842B8C932A9664
:101670000FB6F894DEBF0FBECDBFCF91DF910895B6
:10168000DF93CF9300D000D000D0CDB7DEB78C83EE
:101690008C819AE0692F0E94D90D892F8B838C81D0
:1016A0009AE0692F0E94D90D8A8319828A81282F96
:1016B00030E03E832D834D815E814230510541F102
:1016C0008D819E818330910534F42D813E812130BE
:1016D000310561F052C04D815E814330510551F1B9
:1016E0008D819E8184309105B9F147C0E9E3F0E036
:1016F0008081282F30E08B81882F90E0A90102C0E3
:10170000559547958A95E2F7CA018170898335C05E
:10171000E6E3F0E08081282F30E08B81882F90E095
:10172000A90102C0559547958A95E2F7CA018170D3
:10173000898323C0E3E3F0E08081282F30E08B81B0
:10174000882F90E0A90102C0559547958A95E2F748
:10175000CA018170898311C0E0E3F0E08081282F05
:1017600030E08B81882F90E0A90102C05595479504
:101770008A95E2F7CA0181708983898126960FB61E
:10178000F894DEBF0FBECDBFCF91DF910895DF93F8
:10179000CF9300D000D00F92CDB7DEB78B838B8173
:1017A0009AE0692F0E94D90D892F8A838B819AE054
:1017B000692F0E94D90D89838981282F30E03D83CC
:1017C0002C838C819D818230910551F12C813D814A
:1017D0002330310534F48C819D818130910561F095
:1017E0005AC02C813D812330310571F18C819D815E
:1017F00084309105E9F14FC0ABE3B0E0EBE3F0E0FA
:101800008081482F8A81282F30E081E090E0022EED
:1018100002C0880F991F0A94E2F784278C933BC07B
:10182000A8E3B0E0E8E3F0E08081482F8A81282F28
:1018300030E081E090E0022E02C0880F991F0A94E8
:10184000E2F784278C9327C0A5E3B0E0E5E3F0E05E
:101850008081482F8A81282F30E081E090E0022E9D
:1018600002C0880F991F0A94E2F784278C9313C053
:10187000A2E3B0E0E2E3F0E08081482F8A81282FE4
:1018800030E081E090E0022E02C0880F991F0A9498
:10189000E2F784278C930F900F900F900F900F908A
:1018A000CF91DF910895DF93CF93CDB7DEB72A971D
:1018B0000FB6F894DEBF0FBECDBF8B836C838B81D8
:1018C0009AE0692F0E94D90D892F8A838B819AE033
:1018D000692F0E94D90D89838C81282F30E03A87A7
:1018E000298789859A85009739F029853A8521309D
:1018F000310509F476C0E4C08981282F30E03887AB
:101900002F838F8198858230910561F12F813885F1
:101910002330310534F48F8198858130910569F049
:10192000CFC02F8138852330310589F18F8198858B
:101930008430910509F440C0C3C0ABE3B0E0EBE3F1
:10194000F0E08081482F8A81282F30E081E090E00C
:10195000022E02C0880F991F0A94E2F78095842313
:101960008C93AEC0A8E3B0E0E8E3F0E08081482FBC
:101970008A81282F30E081E090E0022E02C0880F9B
:10198000991F0A94E2F7809584238C9399C0A5E36C
:10199000B0E0E5E3F0E08081482F8A81282F30E035
:1019A00081E090E0022E02C0880F991F0A94E2F7AE
:1019B000809584238C9384C0A2E3B0E0E2E3F0E05E
:1019C0008081482F8A81282F30E081E090E0022E2C
:1019D00002C0880F991F0A94E2F7809584238C93A4
:1019E0006FC08981282F30E03E832D838D819E81B9
:1019F0008230910551F12D813E812330310534F43F
:101A00008D819E818130910561F05AC02D813E818A
:101A10002330310571F18D819E8184309105E9F18A
:101A20004FC0ABE3B0E0EBE3F0E08081482F8A8168
:101A3000282F30E081E090E0022E02C0880F991F2D
:101A40000A94E2F7842B8C933BC0A8E3B0E0E8E370
:101A5000F0E08081482F8A81282F30E081E090E0FB
:101A6000022E02C0880F991F0A94E2F7842B8C93F0
:101A700027C0A5E3B0E0E5E3F0E08081482F8A814C
:101A8000282F30E081E090E0022E02C0880F991FDD
:101A90000A94E2F7842B8C9313C0A2E3B0E0E2E354
:101AA000F0E08081482F8A81282F30E081E090E0AB
:101AB000022E02C0880F991F0A94E2F7842B8C93A0
:101AC0002A960FB6F894DEBF0FBECDBFCF91DF913F
:101AD0000895DF93CF930F92CDB7DEB70E94B7067C
:101AE00080E00E94EB078AE061E00E94140984E133
:101AF0008983898163E00E947E0DFBCFDF93CF93C2
:101B000000D0CDB7DEB789836A830E940C0781308D
:101B1000E1F78AE061E00E942A0A8981882F90E03B
:101B2000A0E0B0E0BC01CD010E9449049B01AC01E2
:101B300080E0BA01A9010E945C0880E00E94E808E8
:101B400089810E94F1060E940C078230E1F78A81A8
:101B50000E94F1060E940C078330E1F78AE060E002
:101B60000E942A0A80E00E94F5080F900F90CF9102
:101B7000DF910895629FD001739FF001829FE00D75
:101B8000F11D649FE00DF11D929FF00D839FF00DFC
:101B9000749FF00D659FF00D9927729FB00DE11DA8
:101BA000F91F639FB00DE11DF91FBD01CF01112485
:101BB0000895991B79E004C0991F961708F0961BA9
:101BC000881F7A95C9F780950895A1E21A2EAA1B5D
:101BD000BB1BFD010DC0AA1FBB1FEE1FFF1FA217DD
:101BE000B307E407F50720F0A21BB30BE40BF50BDA
:101BF000661F771F881F991F1A9469F76095709563
:101C0000809590959B01AC01BD01CF0108952F9265
:101C10003F924F925F926F927F928F929F92AF927C
:101C2000BF92CF92DF92EF92FF920F931F93CF93C9
:101C3000DF93CDB7DEB7CA1BDB0B0FB6F894DEBF60
:101C40000FBECDBF09942A88398848885F846E8486
:101C50007D848C849B84AA84B984C884DF80EE80D0
:101C6000FD800C811B81AA81B981CE0FD11D0FB6D9
:101C7000F894DEBF0FBECDBFED010895F894FFCFFD
:101C80000000000000000000000102020303030343
:101C900004040404040404040505050505050505FC
:101CA00005050505050505050606060606060606DC
:101CB00006060606060606060606060606060606C4
:101CC00006060606060606060707070707070707AC
:101CD0000707070707070707070707070707070794
:101CE0000707070707070707070707070707070784
:101CF0000707070707070707070707070707070774
:101D0000070707070707070708080808080808085B
:101D10000808080808080808080808080808080843
:101D20000808080808080808080808080808080833
:101D30000808080808080808080808080808080823
:101D40000808080808080808080808080808080813
:101D50000808080808080808080808080808080803
:101D600008080808080808080808080808080808F3
:101D700008080808080808080808080808080808E3
:081D800008080808080808081B
:00000001FF
